:02000000542882
:0E0006008312031326088A00250882000800D2
:100014000E3083120313FD00FD0B0E2800000800B0
:10002400831203139F01C0309F0483161F179F1769
:1000340083122708F000F00D7010F00D7010F00D11
:10004400701070089F041F140A201F151F1D2C28F0
:10005400000028281F101E08F100F00183161E0856
:08006400F0040030F104080073
:10006C00FF3083120313A200FF30A300FF30A40063
:10007C00FF309F01C0309F0483161F179F178312F8
:04008C001F14080035
:1000900003208A110A128000840AA50A0319A60AFD
:0800A000F003031D48280800CD
:1000A80036208316860183128601A7011220700864
:1000B8008312A0007108A10080307106F200803020
:1000C8007202031D69282830700203186D2806146F
:1000D8006E2806108030F000803021067002031D63
:1000E800772820083E3C03187B2886147C28861035
:0400F80059287D28DE
:02400E004A2F37
:00000001FF
